{
  "deployments": [
    {
      "transactions": [
        {
          "hash": "0xfae9d908701d12800b91193b9ec8bc7e7dc9ea219cd56e941509f72db4f3e287",
          "transactionType": "CALL",
          "contractName": null,
          "contractAddress": "0x63f7f67bccc1064b86238d83d764cabcaaed2916",
          "function": "setPeer(uint32,bytes32)",
          "arguments": [
            "40231",
            "0x00000000000000000000000063f7f67bccc1064b86238d83d764cabcaaed2916"
          ],
          "transaction": {
            "from": "0x64a822f980dc5f126215d75d11dd8114ed0bdb5f",
            "to": "0x63f7f67bccc1064b86238d83d764cabcaaed2916",
            "gas": "0x961a",
            "value": "0x0",
            "input": "0x3400288b0000000000000000000000000000000000000000000000000000000000009d2700000000000000000000000063f7f67bccc1064b86238d83d764cabcaaed2916",
            "nonce": "0x429",
            "chainId": "0x14a34"
          },
          "additionalContracts": [],
          "isFixedGasLimit": false
        }
      ],
      "receipts": [
        {
          "status": "0x1",
          "cumulativeGasUsed": "0x14abb3",
          "logs": [
            {
              "address": "0x63f7f67bccc1064b86238d83d764cabcaaed2916",
              "topics": [
                "0x238399d427b947898edb290f5ff0f9109849b1c3ba196a42e35f00c50a54b98b"
              ],
              "data": "0x0000000000000000000000000000000000000000000000000000000000009d2700000000000000000000000063f7f67bccc1064b86238d83d764cabcaaed2916",
              "blockHash": "0x2bf026d406fa36c2e7c87c5349a7daf515c2e3d77045f215c70bc5ec4e3bb697",
              "blockNumber": "0x1233012",
              "transactionHash": "0xfae9d908701d12800b91193b9ec8bc7e7dc9ea219cd56e941509f72db4f3e287",
              "transactionIndex": "0xc",
              "logIndex": "0x17",
              "removed": false
            }
          ],
          "logsBloom": "0x00000000000000000000000000000000000000000000000000000000000000000000000000000000000000000000000000000000000000000800000000000000000000000000000000000000000000000000000000000000000000000000000000000000001000000000000000000000000000000000000000000000000000000000000000000000000000000000000000000000000000000000000000000000000000000000000000000000000000000000000000000000000002000000000100000000000000000000000000000000000000000000000000040000000000000000000000000000000000000000000000000000000000800000000000000000",
          "type": "0x2",
          "transactionHash": "0xfae9d908701d12800b91193b9ec8bc7e7dc9ea219cd56e941509f72db4f3e287",
          "transactionIndex": "0xc",
          "blockHash": "0x2bf026d406fa36c2e7c87c5349a7daf515c2e3d77045f215c70bc5ec4e3bb697",
          "blockNumber": "0x1233012",
          "gasUsed": "0x6cad",
          "effectiveGasPrice": "0x187ce",
          "from": "0x64a822f980dc5f126215d75d11dd8114ed0bdb5f",
          "to": "0x63f7f67bccc1064b86238d83d764cabcaaed2916",
          "contractAddress": null,
          "l1BaseFeeScalar": "0x44d",
          "l1BlobBaseFee": "0xb88c528",
          "l1BlobBaseFeeScalar": "0xa118b",
          "l1Fee": "0x66b76c016",
          "l1GasPrice": "0x1f4e4d5fc",
          "l1GasUsed": "0x640"
        }
      ],
      "libraries": [],
      "pending": [],
      "returns": {},
      "timestamp": 1733934847,
      "chain": 84532,
      "commit": "59721d8"
    },
    {
      "transactions": [
        {
          "hash": "0xd5ad4f1c8414382e6994e6923fae621341a9f0d72d40f3c83bb0ae7d214eb44c",
          "transactionType": "CALL",
          "contractName": null,
          "contractAddress": "0x63f7f67bccc1064b86238d83d764cabcaaed2916",
          "function": "setPeer(uint32,bytes32)",
          "arguments": [
            "40245",
            "0x00000000000000000000000063f7f67bccc1064b86238d83d764cabcaaed2916"
          ],
          "transaction": {
            "from": "0x64a822f980dc5f126215d75d11dd8114ed0bdb5f",
            "to": "0x63f7f67bccc1064b86238d83d764cabcaaed2916",
            "gas": "0xbd39",
            "value": "0x0",
            "input": "0x3400288b0000000000000000000000000000000000000000000000000000000000009d3500000000000000000000000063f7f67bccc1064b86238d83d764cabcaaed2916",
            "nonce": "0x1da",
            "chainId": "0x66eee"
          },
          "additionalContracts": [],
          "isFixedGasLimit": false
        }
      ],
      "receipts": [
        {
          "status": "0x1",
          "cumulativeGasUsed": "0x2e27f",
          "logs": [
            {
              "address": "0x63f7f67bccc1064b86238d83d764cabcaaed2916",
              "topics": [
                "0x238399d427b947898edb290f5ff0f9109849b1c3ba196a42e35f00c50a54b98b"
              ],
              "data": "0x0000000000000000000000000000000000000000000000000000000000009d3500000000000000000000000063f7f67bccc1064b86238d83d764cabcaaed2916",
              "blockHash": "0x75fcfb8877f02841adc9d0bc34f4e0298ba465455508a47a1f52b0125ab526ee",
              "blockNumber": "0x64f6fc9",
              "transactionHash": "0xd5ad4f1c8414382e6994e6923fae621341a9f0d72d40f3c83bb0ae7d214eb44c",
              "transactionIndex": "0x2",
              "logIndex": "0x1",
              "removed": false
            }
          ],
          "logsBloom": "0x00000000000000000000000000000000000000000000000000000000000000000000000000000000000000000000000000000000000000000800000000000000000000000000000000000000000000000000000000000000000000000000000000000000001000000000000000000000000000000000000000000000000000000000000000000000000000000000000000000000000000000000000000000000000000000000000000000000000000000000000000000000000002000000000100000000000000000000000000000000000000000000000000040000000000000000000000000000000000000000000000000000000000800000000000000000",
          "type": "0x2",
          "transactionHash": "0xd5ad4f1c8414382e6994e6923fae621341a9f0d72d40f3c83bb0ae7d214eb44c",
          "transactionIndex": "0x2",
          "blockHash": "0x75fcfb8877f02841adc9d0bc34f4e0298ba465455508a47a1f52b0125ab526ee",
          "blockNumber": "0x64f6fc9",
          "gasUsed": "0x885e",
          "effectiveGasPrice": "0x5f5e100",
          "from": "0x64a822f980dc5f126215d75d11dd8114ed0bdb5f",
          "to": "0x63f7f67bccc1064b86238d83d764cabcaaed2916",
          "contractAddress": null,
          "gasUsedForL1": "0x1bb1",
          "l1BlockNumber": "0x6ec060"
        }
      ],
      "libraries": [],
      "pending": [],
      "returns": {},
      "timestamp": 1733934847,
      "chain": 421614,
      "commit": "59721d8"
    }
  ],
  "timestamp": 1733934853
}