{
  "deployments": [
    {
      "transactions": [
        {
          "hash": "0x47683bbb9bf961d3c2198a9f09cd76ee628470896a03c6f55213cdbd1af21ece",
          "transactionType": "CALL",
          "contractName": null,
          "contractAddress": "0x9af84004bd3428fe3712c83a7f9a51ddda3b39f6",
          "function": "setPeer(uint32,bytes32)",
          "arguments": [
            "40231",
            "0x0000000000000000000000009af84004bd3428fe3712c83a7f9a51ddda3b39f6"
          ],
          "transaction": {
            "from": "0x64a822f980dc5f126215d75d11dd8114ed0bdb5f",
            "to": "0x9af84004bd3428fe3712c83a7f9a51ddda3b39f6",
            "gas": "0x961a",
            "value": "0x0",
            "input": "0x3400288b0000000000000000000000000000000000000000000000000000000000009d270000000000000000000000009af84004bd3428fe3712c83a7f9a51ddda3b39f6",
            "nonce": "0x418",
            "chainId": "0x14a34"
          },
          "additionalContracts": [],
          "isFixedGasLimit": false
        }
      ],
      "receipts": [],
      "libraries": [],
      "pending": [],
      "returns": {},
      "timestamp": 1732117882,
      "chain": 84532,
      "commit": "1d5b877"
    },
    {
      "transactions": [
        {
          "hash": null,
          "transactionType": "CALL",
          "contractName": null,
          "contractAddress": "0x9af84004bd3428fe3712c83a7f9a51ddda3b39f6",
          "function": "setPeer(uint32,bytes32)",
          "arguments": [
            "40245",
            "0x0000000000000000000000009af84004bd3428fe3712c83a7f9a51ddda3b39f6"
          ],
          "transaction": {
            "from": "0x64a822f980dc5f126215d75d11dd8114ed0bdb5f",
            "to": "0x9af84004bd3428fe3712c83a7f9a51ddda3b39f6",
            "gas": "0xbc39",
            "value": "0x0",
            "input": "0x3400288b0000000000000000000000000000000000000000000000000000000000009d350000000000000000000000009af84004bd3428fe3712c83a7f9a51ddda3b39f6",
            "nonce": "0x1cd",
            "chainId": "0x66eee"
          },
          "additionalContracts": [],
          "isFixedGasLimit": false
        }
      ],
      "receipts": [],
      "libraries": [],
      "pending": [],
      "returns": {},
      "timestamp": 1732117882,
      "chain": 421614,
      "commit": "1d5b877"
    },
    {
      "transactions": [
        {
          "hash": null,
          "transactionType": "CALL",
          "contractName": null,
          "contractAddress": "0x6edce65403992e310a62460808c4b910d972f10f",
          "function": "setSendLibrary(address,uint32,address)",
          "arguments": [
            "0x9aF84004Bd3428Fe3712C83A7F9A51dDDa3B39F6",
            "40231",
            "0xC1868e054425D378095A003EcbA3823a5D0135C9"
          ],
          "transaction": {
            "from": "0x64a822f980dc5f126215d75d11dd8114ed0bdb5f",
            "to": "0x6edce65403992e310a62460808c4b910d972f10f",
            "gas": "0x149cd",
            "value": "0x0",
            "input": "0x9535ff300000000000000000000000009af84004bd3428fe3712c83a7f9a51ddda3b39f60000000000000000000000000000000000000000000000000000000000009d27000000000000000000000000c1868e054425d378095a003ecba3823a5d0135c9",
            "nonce": "0x418",
            "chainId": "0x14a34"
          },
          "additionalContracts": [],
          "isFixedGasLimit": false
        },
        {
          "hash": null,
          "transactionType": "CALL",
          "contractName": null,
          "contractAddress": "0x6edce65403992e310a62460808c4b910d972f10f",
          "function": "setReceiveLibrary(address,uint32,address,uint256)",
          "arguments": [
            "0x9aF84004Bd3428Fe3712C83A7F9A51dDDa3B39F6",
            "40231",
            "0x12523de19dc41c91F7d2093E0CFbB76b17012C8d",
            "0"
          ],
          "transaction": {
            "from": "0x64a822f980dc5f126215d75d11dd8114ed0bdb5f",
            "to": "0x6edce65403992e310a62460808c4b910d972f10f",
            "gas": "0x17001",
            "value": "0x0",
            "input": "0x6a14d7150000000000000000000000009af84004bd3428fe3712c83a7f9a51ddda3b39f60000000000000000000000000000000000000000000000000000000000009d2700000000000000000000000012523de19dc41c91f7d2093e0cfbb76b17012c8d0000000000000000000000000000000000000000000000000000000000000000",
            "nonce": "0x419",
            "chainId": "0x14a34"
          },
          "additionalContracts": [],
          "isFixedGasLimit": false
        },
        {
          "hash": null,
          "transactionType": "CALL",
          "contractName": null,
          "contractAddress": "0x9af84004bd3428fe3712c83a7f9a51ddda3b39f6",
          "function": "setReadChannel(uint32,bool)",
          "arguments": [
            "4294967294",
            "true"
          ],
          "transaction": {
            "from": "0x64a822f980dc5f126215d75d11dd8114ed0bdb5f",
            "to": "0x9af84004bd3428fe3712c83a7f9a51ddda3b39f6",
            "gas": "0x9e2f",
            "value": "0x0",
            "input": "0xf0a9e48100000000000000000000000000000000000000000000000000000000fffffffe0000000000000000000000000000000000000000000000000000000000000001",
            "nonce": "0x41a",
            "chainId": "0x14a34"
          },
          "additionalContracts": [],
          "isFixedGasLimit": false
        }
      ],
      "receipts": [],
      "libraries": [],
      "pending": [],
      "returns": {},
      "timestamp": 1732117882,
      "chain": 84532,
      "commit": "1d5b877"
    }
  ],
  "timestamp": 1732118006
}