{
  "deployments": [
    {
      "transactions": [
        {
          "hash": "0x0691ebc1cff37cb67fab68aef4c93012cfcb22ecfc9b58c6924cb52c3f5a0b0a",
          "transactionType": "CALL",
          "contractName": null,
          "contractAddress": "0x6ede206427e12ecee0f4ed23f37247f3d9885b6a",
          "function": "setPeer(uint32,bytes32)",
          "arguments": [
            "40231",
            "0x0000000000000000000000006ede206427e12ecee0f4ed23f37247f3d9885b6a"
          ],
          "transaction": {
            "from": "0x64a822f980dc5f126215d75d11dd8114ed0bdb5f",
            "to": "0x6ede206427e12ecee0f4ed23f37247f3d9885b6a",
            "gas": "0x1109f",
            "value": "0x0",
            "input": "0x3400288b0000000000000000000000000000000000000000000000000000000000009d270000000000000000000000006ede206427e12ecee0f4ed23f37247f3d9885b6a",
            "nonce": "0x41f",
            "chainId": "0x14a34"
          },
          "additionalContracts": [],
          "isFixedGasLimit": false
        }
      ],
      "receipts": [],
      "libraries": [],
      "pending": [],
      "returns": {},
      "timestamp": 1732119993,
      "chain": 84532,
      "commit": "1d5b877"
    },
    {
      "transactions": [
        {
          "hash": null,
          "transactionType": "CALL",
          "contractName": null,
          "contractAddress": "0x6ede206427e12ecee0f4ed23f37247f3d9885b6a",
          "function": "setPeer(uint32,bytes32)",
          "arguments": [
            "40245",
            "0x0000000000000000000000006ede206427e12ecee0f4ed23f37247f3d9885b6a"
          ],
          "transaction": {
            "from": "0x64a822f980dc5f126215d75d11dd8114ed0bdb5f",
            "to": "0x6ede206427e12ecee0f4ed23f37247f3d9885b6a",
            "gas": "0x10e4d",
            "value": "0x0",
            "input": "0x3400288b0000000000000000000000000000000000000000000000000000000000009d350000000000000000000000006ede206427e12ecee0f4ed23f37247f3d9885b6a",
            "nonce": "0x1d3",
            "chainId": "0x66eee"
          },
          "additionalContracts": [],
          "isFixedGasLimit": false
        }
      ],
      "receipts": [],
      "libraries": [],
      "pending": [],
      "returns": {},
      "timestamp": 1732119994,
      "chain": 421614,
      "commit": "1d5b877"
    },
    {
      "transactions": [
        {
          "hash": null,
          "transactionType": "CALL",
          "contractName": null,
          "contractAddress": "0x6edce65403992e310a62460808c4b910d972f10f",
          "function": "setSendLibrary(address,uint32,address)",
          "arguments": [
            "0x6ede206427E12ecEe0f4ED23f37247f3d9885B6a",
            "4294967295",
            "0x29270F0CFC54432181C853Cd25E2Fb60A68E03f2"
          ],
          "transaction": {
            "from": "0x64a822f980dc5f126215d75d11dd8114ed0bdb5f",
            "to": "0x6edce65403992e310a62460808c4b910d972f10f",
            "gas": "0x137f1",
            "value": "0x0",
            "input": "0x9535ff300000000000000000000000006ede206427e12ecee0f4ed23f37247f3d9885b6a00000000000000000000000000000000000000000000000000000000ffffffff00000000000000000000000029270f0cfc54432181c853cd25e2fb60a68e03f2",
            "nonce": "0x41f",
            "chainId": "0x14a34"
          },
          "additionalContracts": [],
          "isFixedGasLimit": false
        },
        {
          "hash": null,
          "transactionType": "CALL",
          "contractName": null,
          "contractAddress": "0x6edce65403992e310a62460808c4b910d972f10f",
          "function": "setReceiveLibrary(address,uint32,address,uint256)",
          "arguments": [
            "0x6ede206427E12ecEe0f4ED23f37247f3d9885B6a",
            "4294967295",
            "0x29270F0CFC54432181C853Cd25E2Fb60A68E03f2",
            "0"
          ],
          "transaction": {
            "from": "0x64a822f980dc5f126215d75d11dd8114ed0bdb5f",
            "to": "0x6edce65403992e310a62460808c4b910d972f10f",
            "gas": "0x17026",
            "value": "0x0",
            "input": "0x6a14d7150000000000000000000000006ede206427e12ecee0f4ed23f37247f3d9885b6a00000000000000000000000000000000000000000000000000000000ffffffff00000000000000000000000029270f0cfc54432181c853cd25e2fb60a68e03f20000000000000000000000000000000000000000000000000000000000000000",
            "nonce": "0x420",
            "chainId": "0x14a34"
          },
          "additionalContracts": [],
          "isFixedGasLimit": false
        },
        {
          "hash": null,
          "transactionType": "CALL",
          "contractName": null,
          "contractAddress": "0x6ede206427e12ecee0f4ed23f37247f3d9885b6a",
          "function": "setReadChannel(uint32,bool)",
          "arguments": [
            "4294967295",
            "true"
          ],
          "transaction": {
            "from": "0x64a822f980dc5f126215d75d11dd8114ed0bdb5f",
            "to": "0x6ede206427e12ecee0f4ed23f37247f3d9885b6a",
            "gas": "0x100c3",
            "value": "0x0",
            "input": "0xf0a9e48100000000000000000000000000000000000000000000000000000000ffffffff0000000000000000000000000000000000000000000000000000000000000001",
            "nonce": "0x421",
            "chainId": "0x14a34"
          },
          "additionalContracts": [],
          "isFixedGasLimit": false
        }
      ],
      "receipts": [],
      "libraries": [],
      "pending": [],
      "returns": {},
      "timestamp": 1732119994,
      "chain": 84532,
      "commit": "1d5b877"
    }
  ],
  "timestamp": 1732120120
}