{
  "deployments": [
    {
      "transactions": [
        {
          "hash": "0x2d9c1748e4204de1b11179dc5f236d5262efebe254c80430aa2518df62820fce",
          "transactionType": "CALL",
          "contractName": null,
          "contractAddress": "0x63f7f67bccc1064b86238d83d764cabcaaed2916",
          "function": "setPeer(uint32,bytes32)",
          "arguments": [
            "40231",
            "0x00000000000000000000000063f7f67bccc1064b86238d83d764cabcaaed2916"
          ],
          "transaction": {
            "from": "0x64a822f980dc5f126215d75d11dd8114ed0bdb5f",
            "to": "0x63f7f67bccc1064b86238d83d764cabcaaed2916",
            "gas": "0x1109f",
            "value": "0x0",
            "input": "0x3400288b0000000000000000000000000000000000000000000000000000000000009d2700000000000000000000000063f7f67bccc1064b86238d83d764cabcaaed2916",
            "nonce": "0x427",
            "chainId": "0x14a34"
          },
          "additionalContracts": [],
          "isFixedGasLimit": false
        }
      ],
      "receipts": [
        {
          "status": "0x1",
          "cumulativeGasUsed": "0x1a4b61",
          "logs": [
            {
              "address": "0x63f7f67bccc1064b86238d83d764cabcaaed2916",
              "topics": [
                "0x238399d427b947898edb290f5ff0f9109849b1c3ba196a42e35f00c50a54b98b"
              ],
              "data": "0x0000000000000000000000000000000000000000000000000000000000009d2700000000000000000000000063f7f67bccc1064b86238d83d764cabcaaed2916",
              "blockHash": "0xb9bb70f9c8ede3194177209db544ef70ca924f981b72a22ca045766aa5dd89e5",
              "blockNumber": "0x1232ff7",
              "transactionHash": "0x2d9c1748e4204de1b11179dc5f236d5262efebe254c80430aa2518df62820fce",
              "transactionIndex": "0x10",
              "logIndex": "0x26",
              "removed": false
            }
          ],
          "logsBloom": "0x00000000000000000000000000000000000000000000000000000000000000000000000000000000000000000000000000000000000000000800000000000000000000000000000000000000000000000000000000000000000000000000000000000000001000000000000000000000000000000000000000000000000000000000000000000000000000000000000000000000000000000000000000000000000000000000000000000000000000000000000000000000000002000000000100000000000000000000000000000000000000000000000000040000000000000000000000000000000000000000000000000000000000800000000000000000",
          "type": "0x2",
          "transactionHash": "0x2d9c1748e4204de1b11179dc5f236d5262efebe254c80430aa2518df62820fce",
          "transactionIndex": "0x10",
          "blockHash": "0xb9bb70f9c8ede3194177209db544ef70ca924f981b72a22ca045766aa5dd89e5",
          "blockNumber": "0x1232ff7",
          "gasUsed": "0xba69",
          "effectiveGasPrice": "0x187cf",
          "from": "0x64a822f980dc5f126215d75d11dd8114ed0bdb5f",
          "to": "0x63f7f67bccc1064b86238d83d764cabcaaed2916",
          "contractAddress": null,
          "l1BaseFeeScalar": "0x44d",
          "l1BlobBaseFee": "0xe09386b",
          "l1BlobBaseFeeScalar": "0xa118b",
          "l1Fee": "0x78a37daac",
          "l1GasPrice": "0x239f70468",
          "l1GasUsed": "0x640"
        }
      ],
      "libraries": [],
      "pending": [],
      "returns": {},
      "timestamp": 1733934791,
      "chain": 84532,
      "commit": "59721d8"
    },
    {
      "transactions": [
        {
          "hash": "0xfb32d2beddfcca245bb8069f52404e2d87fe108d22348e72d67e0d5ae9d1c51d",
          "transactionType": "CALL",
          "contractName": null,
          "contractAddress": "0x63f7f67bccc1064b86238d83d764cabcaaed2916",
          "function": "setPeer(uint32,bytes32)",
          "arguments": [
            "40245",
            "0x00000000000000000000000063f7f67bccc1064b86238d83d764cabcaaed2916"
          ],
          "transaction": {
            "from": "0x64a822f980dc5f126215d75d11dd8114ed0bdb5f",
            "to": "0x63f7f67bccc1064b86238d83d764cabcaaed2916",
            "gas": "0x12489",
            "value": "0x0",
            "input": "0x3400288b0000000000000000000000000000000000000000000000000000000000009d3500000000000000000000000063f7f67bccc1064b86238d83d764cabcaaed2916",
            "nonce": "0x1d9",
            "chainId": "0x66eee"
          },
          "additionalContracts": [],
          "isFixedGasLimit": false
        }
      ],
      "receipts": [
        {
          "status": "0x1",
          "cumulativeGasUsed": "0x44112",
          "logs": [
            {
              "address": "0x63f7f67bccc1064b86238d83d764cabcaaed2916",
              "topics": [
                "0x238399d427b947898edb290f5ff0f9109849b1c3ba196a42e35f00c50a54b98b"
              ],
              "data": "0x0000000000000000000000000000000000000000000000000000000000009d3500000000000000000000000063f7f67bccc1064b86238d83d764cabcaaed2916",
              "blockHash": "0xbea81d6c79f60fa97251fd7f1674c2ee55e6bcb1a8002e786307961c16a2f342",
              "blockNumber": "0x64f6ef2",
              "transactionHash": "0xfb32d2beddfcca245bb8069f52404e2d87fe108d22348e72d67e0d5ae9d1c51d",
              "transactionIndex": "0x4",
              "logIndex": "0x3",
              "removed": false
            }
          ],
          "logsBloom": "0x00000000000000000000000000000000000000000000000000000000000000000000000000000000000000000000000000000000000000000800000000000000000000000000000000000000000000000000000000000000000000000000000000000000001000000000000000000000000000000000000000000000000000000000000000000000000000000000000000000000000000000000000000000000000000000000000000000000000000000000000000000000000002000000000100000000000000000000000000000000000000000000000000040000000000000000000000000000000000000000000000000000000000800000000000000000",
          "type": "0x2",
          "transactionHash": "0xfb32d2beddfcca245bb8069f52404e2d87fe108d22348e72d67e0d5ae9d1c51d",
          "transactionIndex": "0x4",
          "blockHash": "0xbea81d6c79f60fa97251fd7f1674c2ee55e6bcb1a8002e786307961c16a2f342",
          "blockNumber": "0x64f6ef2",
          "gasUsed": "0xd640",
          "effectiveGasPrice": "0x5f5e100",
          "from": "0x64a822f980dc5f126215d75d11dd8114ed0bdb5f",
          "to": "0x63f7f67bccc1064b86238d83d764cabcaaed2916",
          "contractAddress": null,
          "gasUsedForL1": "0x1bd7",
          "l1BlockNumber": "0x6ec05c"
        }
      ],
      "libraries": [],
      "pending": [],
      "returns": {},
      "timestamp": 1733934791,
      "chain": 421614,
      "commit": "59721d8"
    },
    {
      "transactions": [
        {
          "hash": null,
          "transactionType": "CALL",
          "contractName": null,
          "contractAddress": "0x6edce65403992e310a62460808c4b910d972f10f",
          "function": "setSendLibrary(address,uint32,address)",
          "arguments": [
            "0x63F7F67bcCc1064B86238d83d764CAbCaaED2916",
            "4294967295",
            "0x29270F0CFC54432181C853Cd25E2Fb60A68E03f2"
          ],
          "transaction": {
            "from": "0x64a822f980dc5f126215d75d11dd8114ed0bdb5f",
            "to": "0x6edce65403992e310a62460808c4b910d972f10f",
            "gas": "0x137f1",
            "value": "0x0",
            "input": "0x9535ff3000000000000000000000000063f7f67bccc1064b86238d83d764cabcaaed291600000000000000000000000000000000000000000000000000000000ffffffff00000000000000000000000029270f0cfc54432181c853cd25e2fb60a68e03f2",
            "nonce": "0x427",
            "chainId": "0x14a34"
          },
          "additionalContracts": [],
          "isFixedGasLimit": false
        },
        {
          "hash": null,
          "transactionType": "CALL",
          "contractName": null,
          "contractAddress": "0x6edce65403992e310a62460808c4b910d972f10f",
          "function": "setReceiveLibrary(address,uint32,address,uint256)",
          "arguments": [
            "0x63F7F67bcCc1064B86238d83d764CAbCaaED2916",
            "4294967295",
            "0x29270F0CFC54432181C853Cd25E2Fb60A68E03f2",
            "0"
          ],
          "transaction": {
            "from": "0x64a822f980dc5f126215d75d11dd8114ed0bdb5f",
            "to": "0x6edce65403992e310a62460808c4b910d972f10f",
            "gas": "0x17026",
            "value": "0x0",
            "input": "0x6a14d71500000000000000000000000063f7f67bccc1064b86238d83d764cabcaaed291600000000000000000000000000000000000000000000000000000000ffffffff00000000000000000000000029270f0cfc54432181c853cd25e2fb60a68e03f20000000000000000000000000000000000000000000000000000000000000000",
            "nonce": "0x428",
            "chainId": "0x14a34"
          },
          "additionalContracts": [],
          "isFixedGasLimit": false
        }
      ],
      "receipts": [],
      "libraries": [],
      "pending": [],
      "returns": {},
      "timestamp": 1733934791,
      "chain": 84532,
      "commit": "59721d8"
    }
  ],
  "timestamp": 1733934799
}