{
  "deployments": [
    {
      "transactions": [
        {
          "hash": "0xa1e3242a95876e3e8c9c1057857df676837bb2859d4fe47c8fedc8c39742da56",
          "transactionType": "CALL",
          "contractName": null,
          "contractAddress": "0x9af84004bd3428fe3712c83a7f9a51ddda3b39f6",
          "function": "setPeer(uint32,bytes32)",
          "arguments": [
            "40231",
            "0x0000000000000000000000009af84004bd3428fe3712c83a7f9a51ddda3b39f6"
          ],
          "transaction": {
            "from": "0x64a822f980dc5f126215d75d11dd8114ed0bdb5f",
            "to": "0x9af84004bd3428fe3712c83a7f9a51ddda3b39f6",
            "gas": "0x961a",
            "value": "0x0",
            "input": "0x3400288b0000000000000000000000000000000000000000000000000000000000009d270000000000000000000000009af84004bd3428fe3712c83a7f9a51ddda3b39f6",
            "nonce": "0x418",
            "chainId": "0x14a34"
          },
          "additionalContracts": [],
          "isFixedGasLimit": false
        }
      ],
      "receipts": [
        {
          "status": "0x1",
          "cumulativeGasUsed": "0x98585",
          "logs": [
            {
              "address": "0x9af84004bd3428fe3712c83a7f9a51ddda3b39f6",
              "topics": [
                "0x238399d427b947898edb290f5ff0f9109849b1c3ba196a42e35f00c50a54b98b"
              ],
              "data": "0x0000000000000000000000000000000000000000000000000000000000009d270000000000000000000000009af84004bd3428fe3712c83a7f9a51ddda3b39f6",
              "blockHash": "0x5b74617c48f585f906c1be11d4d69d3db71b336ea3e07f091bfaca4b48c76313",
              "blockNumber": "0x115539a",
              "transactionHash": "0xa1e3242a95876e3e8c9c1057857df676837bb2859d4fe47c8fedc8c39742da56",
              "transactionIndex": "0x6",
              "logIndex": "0x8",
              "removed": false
            }
          ],
          "logsBloom": "0x00000000000000000000000000000000000000000000000000000000000000000000000080000000000000000000000000000000000000000800000000000000000000000000000000000000000000000000000000000000000000000000000000000000000000000000000000000000000000000000000000000000000000000000000000000000000000000000000000100000000000000000000000000000000000000000000000000000000000000000000000000000000002000000000000000080000000000000000000000000000000000000000000040000000000000000000000000000000000000000000000000000000000000000000000000000",
          "type": "0x2",
          "transactionHash": "0xa1e3242a95876e3e8c9c1057857df676837bb2859d4fe47c8fedc8c39742da56",
          "transactionIndex": "0x6",
          "blockHash": "0x5b74617c48f585f906c1be11d4d69d3db71b336ea3e07f091bfaca4b48c76313",
          "blockNumber": "0x115539a",
          "gasUsed": "0x6cad",
          "effectiveGasPrice": "0x46e",
          "from": "0x64a822f980dc5f126215d75d11dd8114ed0bdb5f",
          "to": "0x9af84004bd3428fe3712c83a7f9a51ddda3b39f6",
          "contractAddress": null,
          "l1BaseFeeScalar": "0x44d",
          "l1BlobBaseFee": "0x1",
          "l1BlobBaseFeeScalar": "0xa118b",
          "l1Fee": "0x2f3119e7e",
          "l1GasPrice": "0x1aca07061",
          "l1GasUsed": "0x640"
        }
      ],
      "libraries": [],
      "pending": [],
      "returns": {},
      "timestamp": 1732118030,
      "chain": 84532,
      "commit": "1d5b877"
    },
    {
      "transactions": [
        {
          "hash": "0x3b290361a37dc573e57fb38880a33edfc954afd698bbcf9553f52903285bf000",
          "transactionType": "CALL",
          "contractName": null,
          "contractAddress": "0x9af84004bd3428fe3712c83a7f9a51ddda3b39f6",
          "function": "setPeer(uint32,bytes32)",
          "arguments": [
            "40245",
            "0x0000000000000000000000009af84004bd3428fe3712c83a7f9a51ddda3b39f6"
          ],
          "transaction": {
            "from": "0x64a822f980dc5f126215d75d11dd8114ed0bdb5f",
            "to": "0x9af84004bd3428fe3712c83a7f9a51ddda3b39f6",
            "gas": "0xafd5",
            "value": "0x0",
            "input": "0x3400288b0000000000000000000000000000000000000000000000000000000000009d350000000000000000000000009af84004bd3428fe3712c83a7f9a51ddda3b39f6",
            "nonce": "0x1cd",
            "chainId": "0x66eee"
          },
          "additionalContracts": [],
          "isFixedGasLimit": false
        }
      ],
      "receipts": [
        {
          "status": "0x1",
          "cumulativeGasUsed": "0x8056",
          "logs": [
            {
              "address": "0x9af84004bd3428fe3712c83a7f9a51ddda3b39f6",
              "topics": [
                "0x238399d427b947898edb290f5ff0f9109849b1c3ba196a42e35f00c50a54b98b"
              ],
              "data": "0x0000000000000000000000000000000000000000000000000000000000009d350000000000000000000000009af84004bd3428fe3712c83a7f9a51ddda3b39f6",
              "blockHash": "0xff04210c885b4c3590b28eaf7c9e1afdd26203025a35b046a9def1eb8296450f",
              "blockNumber": "0x5e68de6",
              "transactionHash": "0x3b290361a37dc573e57fb38880a33edfc954afd698bbcf9553f52903285bf000",
              "transactionIndex": "0x1",
              "logIndex": "0x0",
              "removed": false
            }
          ],
          "logsBloom": "0x00000000000000000000000000000000000000000000000000000000000000000000000080000000000000000000000000000000000000000800000000000000000000000000000000000000000000000000000000000000000000000000000000000000000000000000000000000000000000000000000000000000000000000000000000000000000000000000000000100000000000000000000000000000000000000000000000000000000000000000000000000000000002000000000000000080000000000000000000000000000000000000000000040000000000000000000000000000000000000000000000000000000000000000000000000000",
          "type": "0x2",
          "transactionHash": "0x3b290361a37dc573e57fb38880a33edfc954afd698bbcf9553f52903285bf000",
          "transactionIndex": "0x1",
          "blockHash": "0xff04210c885b4c3590b28eaf7c9e1afdd26203025a35b046a9def1eb8296450f",
          "blockNumber": "0x5e68de6",
          "gasUsed": "0x8056",
          "effectiveGasPrice": "0x5f5e100",
          "from": "0x64a822f980dc5f126215d75d11dd8114ed0bdb5f",
          "to": "0x9af84004bd3428fe3712c83a7f9a51ddda3b39f6",
          "contractAddress": null,
          "gasUsedForL1": "0x13a9",
          "l1BlockNumber": "0x6c97bd"
        }
      ],
      "libraries": [],
      "pending": [],
      "returns": {},
      "timestamp": 1732118030,
      "chain": 421614,
      "commit": "1d5b877"
    },
    {
      "transactions": [
        {
          "hash": null,
          "transactionType": "CALL",
          "contractName": null,
          "contractAddress": "0x6edce65403992e310a62460808c4b910d972f10f",
          "function": "setSendLibrary(address,uint32,address)",
          "arguments": [
            "0x9aF84004Bd3428Fe3712C83A7F9A51dDDa3B39F6",
            "40231",
            "0xC1868e054425D378095A003EcbA3823a5D0135C9"
          ],
          "transaction": {
            "from": "0x64a822f980dc5f126215d75d11dd8114ed0bdb5f",
            "to": "0x6edce65403992e310a62460808c4b910d972f10f",
            "gas": "0x149cd",
            "value": "0x0",
            "input": "0x9535ff300000000000000000000000009af84004bd3428fe3712c83a7f9a51ddda3b39f60000000000000000000000000000000000000000000000000000000000009d27000000000000000000000000c1868e054425d378095a003ecba3823a5d0135c9",
            "nonce": "0x418",
            "chainId": "0x14a34"
          },
          "additionalContracts": [],
          "isFixedGasLimit": false
        },
        {
          "hash": null,
          "transactionType": "CALL",
          "contractName": null,
          "contractAddress": "0x6edce65403992e310a62460808c4b910d972f10f",
          "function": "setReceiveLibrary(address,uint32,address,uint256)",
          "arguments": [
            "0x9aF84004Bd3428Fe3712C83A7F9A51dDDa3B39F6",
            "40231",
            "0x12523de19dc41c91F7d2093E0CFbB76b17012C8d",
            "0"
          ],
          "transaction": {
            "from": "0x64a822f980dc5f126215d75d11dd8114ed0bdb5f",
            "to": "0x6edce65403992e310a62460808c4b910d972f10f",
            "gas": "0x17001",
            "value": "0x0",
            "input": "0x6a14d7150000000000000000000000009af84004bd3428fe3712c83a7f9a51ddda3b39f60000000000000000000000000000000000000000000000000000000000009d2700000000000000000000000012523de19dc41c91f7d2093e0cfbb76b17012c8d0000000000000000000000000000000000000000000000000000000000000000",
            "nonce": "0x419",
            "chainId": "0x14a34"
          },
          "additionalContracts": [],
          "isFixedGasLimit": false
        },
        {
          "hash": null,
          "transactionType": "CALL",
          "contractName": null,
          "contractAddress": "0x9af84004bd3428fe3712c83a7f9a51ddda3b39f6",
          "function": "setReadChannel(uint32,bool)",
          "arguments": [
            "4294967294",
            "true"
          ],
          "transaction": {
            "from": "0x64a822f980dc5f126215d75d11dd8114ed0bdb5f",
            "to": "0x9af84004bd3428fe3712c83a7f9a51ddda3b39f6",
            "gas": "0x9e2f",
            "value": "0x0",
            "input": "0xf0a9e48100000000000000000000000000000000000000000000000000000000fffffffe0000000000000000000000000000000000000000000000000000000000000001",
            "nonce": "0x41a",
            "chainId": "0x14a34"
          },
          "additionalContracts": [],
          "isFixedGasLimit": false
        }
      ],
      "receipts": [],
      "libraries": [],
      "pending": [],
      "returns": {},
      "timestamp": 1732118030,
      "chain": 84532,
      "commit": "1d5b877"
    }
  ],
  "timestamp": 1732118038
}