{
  "deployments": [
    {
      "transactions": [
        {
          "hash": "0x11e68179e9e342443b2533711b17fc0a34a7e9eea8c2c364a5cb20221c44ecbd",
          "transactionType": "CALL",
          "contractName": null,
          "contractAddress": "0x9af84004bd3428fe3712c83a7f9a51ddda3b39f6",
          "function": "setPeer(uint32,bytes32)",
          "arguments": [
            "40231",
            "0x0000000000000000000000009af84004bd3428fe3712c83a7f9a51ddda3b39f6"
          ],
          "transaction": {
            "from": "0x64a822f980dc5f126215d75d11dd8114ed0bdb5f",
            "to": "0x9af84004bd3428fe3712c83a7f9a51ddda3b39f6",
            "gas": "0x1109f",
            "value": "0x0",
            "input": "0x3400288b0000000000000000000000000000000000000000000000000000000000009d270000000000000000000000009af84004bd3428fe3712c83a7f9a51ddda3b39f6",
            "nonce": "0x415",
            "chainId": "0x14a34"
          },
          "additionalContracts": [],
          "isFixedGasLimit": false
        }
      ],
      "receipts": [
        {
          "status": "0x1",
          "cumulativeGasUsed": "0x4932d",
          "logs": [
            {
              "address": "0x9af84004bd3428fe3712c83a7f9a51ddda3b39f6",
              "topics": [
                "0x238399d427b947898edb290f5ff0f9109849b1c3ba196a42e35f00c50a54b98b"
              ],
              "data": "0x0000000000000000000000000000000000000000000000000000000000009d270000000000000000000000009af84004bd3428fe3712c83a7f9a51ddda3b39f6",
              "blockHash": "0x55a43515dda003d42ee3b78e6538fd2a83492e5fed60dfa9ec4a7581fdb0d41a",
              "blockNumber": "0x1153b8c",
              "transactionHash": "0x11e68179e9e342443b2533711b17fc0a34a7e9eea8c2c364a5cb20221c44ecbd",
              "transactionIndex": "0x4",
              "logIndex": "0x4",
              "removed": false
            }
          ],
          "logsBloom": "0x00000000000000000000000000000000000000000000000000000000000000000000000080000000000000000000000000000000000000000800000000000000000000000000000000000000000000000000000000000000000000000000000000000000000000000000000000000000000000000000000000000000000000000000000000000000000000000000000000100000000000000000000000000000000000000000000000000000000000000000000000000000000002000000000000000080000000000000000000000000000000000000000000040000000000000000000000000000000000000000000000000000000000000000000000000000",
          "type": "0x2",
          "transactionHash": "0x11e68179e9e342443b2533711b17fc0a34a7e9eea8c2c364a5cb20221c44ecbd",
          "transactionIndex": "0x4",
          "blockHash": "0x55a43515dda003d42ee3b78e6538fd2a83492e5fed60dfa9ec4a7581fdb0d41a",
          "blockNumber": "0x1153b8c",
          "gasUsed": "0xba69",
          "effectiveGasPrice": "0x3a7",
          "from": "0x64a822f980dc5f126215d75d11dd8114ed0bdb5f",
          "to": "0x9af84004bd3428fe3712c83a7f9a51ddda3b39f6",
          "contractAddress": null,
          "l1BaseFeeScalar": "0x44d",
          "l1BlobBaseFee": "0xa28320204",
          "l1BlobBaseFeeScalar": "0xa118b",
          "l1Fee": "0x2bc0a692f9d",
          "l1GasPrice": "0x10eed80e74",
          "l1GasUsed": "0x640"
        }
      ],
      "libraries": [],
      "pending": [],
      "returns": {},
      "timestamp": 1732105715,
      "chain": 84532,
      "commit": "1d5b877"
    },
    {
      "transactions": [
        {
          "hash": "0x0c8196749fb833e9dc135bca4e152cbdfb70ab4ac516b84a59e8848bed400c8b",
          "transactionType": "CALL",
          "contractName": null,
          "contractAddress": "0x9af84004bd3428fe3712c83a7f9a51ddda3b39f6",
          "function": "setPeer(uint32,bytes32)",
          "arguments": [
            "40245",
            "0x0000000000000000000000009af84004bd3428fe3712c83a7f9a51ddda3b39f6"
          ],
          "transaction": {
            "from": "0x64a822f980dc5f126215d75d11dd8114ed0bdb5f",
            "to": "0x9af84004bd3428fe3712c83a7f9a51ddda3b39f6",
            "gas": "0x46aab",
            "value": "0x0",
            "input": "0x3400288b0000000000000000000000000000000000000000000000000000000000009d350000000000000000000000009af84004bd3428fe3712c83a7f9a51ddda3b39f6",
            "nonce": "0x1cc",
            "chainId": "0x66eee"
          },
          "additionalContracts": [],
          "isFixedGasLimit": false
        }
      ],
      "receipts": [
        {
          "status": "0x1",
          "cumulativeGasUsed": "0x2c9f6",
          "logs": [
            {
              "address": "0x9af84004bd3428fe3712c83a7f9a51ddda3b39f6",
              "topics": [
                "0x238399d427b947898edb290f5ff0f9109849b1c3ba196a42e35f00c50a54b98b"
              ],
              "data": "0x0000000000000000000000000000000000000000000000000000000000009d350000000000000000000000009af84004bd3428fe3712c83a7f9a51ddda3b39f6",
              "blockHash": "0x18e1231b909aa53c4a82fe80597a8b276b4af2072c0f3a26481504439b4b79ff",
              "blockNumber": "0x5e5de08",
              "transactionHash": "0x0c8196749fb833e9dc135bca4e152cbdfb70ab4ac516b84a59e8848bed400c8b",
              "transactionIndex": "0x1",
              "logIndex": "0x0",
              "removed": false
            }
          ],
          "logsBloom": "0x00000000000000000000000000000000000000000000000000000000000000000000000080000000000000000000000000000000000000000800000000000000000000000000000000000000000000000000000000000000000000000000000000000000000000000000000000000000000000000000000000000000000000000000000000000000000000000000000000100000000000000000000000000000000000000000000000000000000000000000000000000000000002000000000000000080000000000000000000000000000000000000000000040000000000000000000000000000000000000000000000000000000000000000000000000000",
          "type": "0x2",
          "transactionHash": "0x0c8196749fb833e9dc135bca4e152cbdfb70ab4ac516b84a59e8848bed400c8b",
          "transactionIndex": "0x1",
          "blockHash": "0x18e1231b909aa53c4a82fe80597a8b276b4af2072c0f3a26481504439b4b79ff",
          "blockNumber": "0x5e5de08",
          "gasUsed": "0x2c9f6",
          "effectiveGasPrice": "0x5f5e100",
          "from": "0x64a822f980dc5f126215d75d11dd8114ed0bdb5f",
          "to": "0x9af84004bd3428fe3712c83a7f9a51ddda3b39f6",
          "contractAddress": null,
          "gasUsedForL1": "0x20f8d",
          "l1BlockNumber": "0x6c940b"
        }
      ],
      "libraries": [],
      "pending": [],
      "returns": {},
      "timestamp": 1732105715,
      "chain": 421614,
      "commit": "1d5b877"
    },
    {
      "transactions": [
        {
          "hash": null,
          "transactionType": "CALL",
          "contractName": null,
          "contractAddress": "0x6edce65403992e310a62460808c4b910d972f10f",
          "function": "setSendLibrary(address,uint32,address)",
          "arguments": [
            "0x9aF84004Bd3428Fe3712C83A7F9A51dDDa3B39F6",
            "40245",
            "0xC1868e054425D378095A003EcbA3823a5D0135C9"
          ],
          "transaction": {
            "from": "0x64a822f980dc5f126215d75d11dd8114ed0bdb5f",
            "to": "0x6edce65403992e310a62460808c4b910d972f10f",
            "gas": "0x149cd",
            "value": "0x0",
            "input": "0x9535ff300000000000000000000000009af84004bd3428fe3712c83a7f9a51ddda3b39f60000000000000000000000000000000000000000000000000000000000009d35000000000000000000000000c1868e054425d378095a003ecba3823a5d0135c9",
            "nonce": "0x415",
            "chainId": "0x14a34"
          },
          "additionalContracts": [],
          "isFixedGasLimit": false
        },
        {
          "hash": null,
          "transactionType": "CALL",
          "contractName": null,
          "contractAddress": "0x6edce65403992e310a62460808c4b910d972f10f",
          "function": "setReceiveLibrary(address,uint32,address,uint256)",
          "arguments": [
            "0x9aF84004Bd3428Fe3712C83A7F9A51dDDa3B39F6",
            "40245",
            "0x12523de19dc41c91F7d2093E0CFbB76b17012C8d",
            "0"
          ],
          "transaction": {
            "from": "0x64a822f980dc5f126215d75d11dd8114ed0bdb5f",
            "to": "0x6edce65403992e310a62460808c4b910d972f10f",
            "gas": "0x17001",
            "value": "0x0",
            "input": "0x6a14d7150000000000000000000000009af84004bd3428fe3712c83a7f9a51ddda3b39f60000000000000000000000000000000000000000000000000000000000009d3500000000000000000000000012523de19dc41c91f7d2093e0cfbb76b17012c8d0000000000000000000000000000000000000000000000000000000000000000",
            "nonce": "0x416",
            "chainId": "0x14a34"
          },
          "additionalContracts": [],
          "isFixedGasLimit": false
        },
        {
          "hash": null,
          "transactionType": "CALL",
          "contractName": null,
          "contractAddress": "0x9af84004bd3428fe3712c83a7f9a51ddda3b39f6",
          "function": "setReadChannel(uint32,bool)",
          "arguments": [
            "4294967294",
            "true"
          ],
          "transaction": {
            "from": "0x64a822f980dc5f126215d75d11dd8114ed0bdb5f",
            "to": "0x9af84004bd3428fe3712c83a7f9a51ddda3b39f6",
            "gas": "0x100c3",
            "value": "0x0",
            "input": "0xf0a9e48100000000000000000000000000000000000000000000000000000000fffffffe0000000000000000000000000000000000000000000000000000000000000001",
            "nonce": "0x417",
            "chainId": "0x14a34"
          },
          "additionalContracts": [],
          "isFixedGasLimit": false
        }
      ],
      "receipts": [],
      "libraries": [],
      "pending": [],
      "returns": {},
      "timestamp": 1732105715,
      "chain": 84532,
      "commit": "1d5b877"
    }
  ],
  "timestamp": 1732105722
}