{
  "deployments": [
    {
      "transactions": [
        {
          "hash": "0x5a7bdef00580e9ed02c2aee4d2bd154186ad8f40631c939c027c0c687d235954",
          "transactionType": "CALL",
          "contractName": null,
          "contractAddress": "0x6acff9166e0fd6203a86ff6c711d9b624590e021",
          "function": "setPeer(uint32,bytes32)",
          "arguments": [
            "40231",
            "0x0000000000000000000000006acff9166e0fd6203a86ff6c711d9b624590e021"
          ],
          "transaction": {
            "from": "0x64a822f980dc5f126215d75d11dd8114ed0bdb5f",
            "to": "0x6acff9166e0fd6203a86ff6c711d9b624590e021",
            "gas": "0x1011d",
            "value": "0x0",
            "input": "0x3400288b0000000000000000000000000000000000000000000000000000000000009d270000000000000000000000006acff9166e0fd6203a86ff6c711d9b624590e021",
            "nonce": "0x40f",
            "chainId": "0x14a34"
          },
          "additionalContracts": [],
          "isFixedGasLimit": false
        }
      ],
      "receipts": [
        {
          "status": "0x1",
          "cumulativeGasUsed": "0x37c066",
          "logs": [
            {
              "address": "0x6acff9166e0fd6203a86ff6c711d9b624590e021",
              "topics": [
                "0x238399d427b947898edb290f5ff0f9109849b1c3ba196a42e35f00c50a54b98b"
              ],
              "data": "0x0000000000000000000000000000000000000000000000000000000000009d270000000000000000000000006acff9166e0fd6203a86ff6c711d9b624590e021",
              "blockHash": "0xc4de2e42ce06110c3f5ae4542c82f45963a0d137bade7e00637028f60869037e",
              "blockNumber": "0x1115859",
              "transactionHash": "0x5a7bdef00580e9ed02c2aee4d2bd154186ad8f40631c939c027c0c687d235954",
              "transactionIndex": "0x6",
              "logIndex": "0xa",
              "removed": false
            }
          ],
          "logsBloom": "0x00000000000000000000000000000000000000000000000000000000000000000000000000000000000000000000000000000000000000000800000000000000000000000000000000000000000000000000000000000000200000000000000000000000000000000000000000000000000000000000000000000000000000000000000000008000000000000000000000000000000000000000000000000000000000040000000000000000000000000000000000000000000002000000000000000000000000000000000000000000000000000000000000040000000000000000000000000000000000000000000000000000000000000000000000000000",
          "type": "0x2",
          "transactionHash": "0x5a7bdef00580e9ed02c2aee4d2bd154186ad8f40631c939c027c0c687d235954",
          "transactionIndex": "0x6",
          "blockHash": "0xc4de2e42ce06110c3f5ae4542c82f45963a0d137bade7e00637028f60869037e",
          "blockNumber": "0x1115859",
          "gasUsed": "0xba26",
          "effectiveGasPrice": "0xd07e",
          "from": "0x64a822f980dc5f126215d75d11dd8114ed0bdb5f",
          "to": "0x6acff9166e0fd6203a86ff6c711d9b624590e021",
          "contractAddress": null,
          "l1BaseFeeScalar": "0x44d",
          "l1BlobBaseFee": "0xe1",
          "l1BlobBaseFeeScalar": "0xa118b",
          "l1Fee": "0xf66e09ea",
          "l1GasPrice": "0x8be3a7ca",
          "l1GasUsed": "0x640"
        }
      ],
      "libraries": [],
      "pending": [],
      "returns": {},
      "timestamp": 1731596174,
      "chain": 84532,
      "commit": "e2edef4"
    },
    {
      "transactions": [
        {
          "hash": "0xf39d6b7116f971f88b771d3612bc2e6c959c95024a6b13b1f05afada6b28bdfc",
          "transactionType": "CALL",
          "contractName": null,
          "contractAddress": "0x6acff9166e0fd6203a86ff6c711d9b624590e021",
          "function": "setPeer(uint32,bytes32)",
          "arguments": [
            "40245",
            "0x0000000000000000000000006acff9166e0fd6203a86ff6c711d9b624590e021"
          ],
          "transaction": {
            "from": "0x64a822f980dc5f126215d75d11dd8114ed0bdb5f",
            "to": "0x6acff9166e0fd6203a86ff6c711d9b624590e021",
            "gas": "0xfa61",
            "value": "0x0",
            "input": "0x3400288b0000000000000000000000000000000000000000000000000000000000009d350000000000000000000000006acff9166e0fd6203a86ff6c711d9b624590e021",
            "nonce": "0x1bf",
            "chainId": "0x66eee"
          },
          "additionalContracts": [],
          "isFixedGasLimit": false
        }
      ],
      "receipts": [
        {
          "status": "0x1",
          "cumulativeGasUsed": "0x39f96",
          "logs": [
            {
              "address": "0x6acff9166e0fd6203a86ff6c711d9b624590e021",
              "topics": [
                "0x238399d427b947898edb290f5ff0f9109849b1c3ba196a42e35f00c50a54b98b"
              ],
              "data": "0x0000000000000000000000000000000000000000000000000000000000009d350000000000000000000000006acff9166e0fd6203a86ff6c711d9b624590e021",
              "blockHash": "0x3cde988dd68630181023f7f150901f48ed8eb020bad581a160f6e1cdd60b90c7",
              "blockNumber": "0x5ccd7b7",
              "transactionHash": "0xf39d6b7116f971f88b771d3612bc2e6c959c95024a6b13b1f05afada6b28bdfc",
              "transactionIndex": "0x2",
              "logIndex": "0x5",
              "removed": false
            }
          ],
          "logsBloom": "0x00000000000000000000000000000000000000000000000000000000000000000000000000000000000000000000000000000000000000000800000000000000000000000000000000000000000000000000000000000000200000000000000000000000000000000000000000000000000000000000000000000000000000000000000000008000000000000000000000000000000000000000000000000000000000040000000000000000000000000000000000000000000002000000000000000000000000000000000000000000000000000000000000040000000000000000000000000000000000000000000000000000000000000000000000000000",
          "type": "0x2",
          "transactionHash": "0xf39d6b7116f971f88b771d3612bc2e6c959c95024a6b13b1f05afada6b28bdfc",
          "transactionIndex": "0x2",
          "blockHash": "0x3cde988dd68630181023f7f150901f48ed8eb020bad581a160f6e1cdd60b90c7",
          "blockNumber": "0x5ccd7b7",
          "gasUsed": "0xbe01",
          "effectiveGasPrice": "0x5f5e100",
          "from": "0x64a822f980dc5f126215d75d11dd8114ed0bdb5f",
          "to": "0x6acff9166e0fd6203a86ff6c711d9b624590e021",
          "contractAddress": null,
          "gasUsedForL1": "0x3db",
          "l1BlockNumber": "0x6bf85c"
        }
      ],
      "libraries": [],
      "pending": [],
      "returns": {},
      "timestamp": 1731596174,
      "chain": 421614,
      "commit": "e2edef4"
    }
  ],
  "timestamp": 1731596181
}