{
  "deployments": [
    {
      "transactions": [
        {
          "hash": "0x7e1093525cba3b252c13b5580d9a09b03dc675a3517e00779108c9d65b082bdb",
          "transactionType": "CALL",
          "contractName": null,
          "contractAddress": "0x6ede206427e12ecee0f4ed23f37247f3d9885b6a",
          "function": "setPeer(uint32,bytes32)",
          "arguments": [
            "40231",
            "0x0000000000000000000000006ede206427e12ecee0f4ed23f37247f3d9885b6a"
          ],
          "transaction": {
            "from": "0x64a822f980dc5f126215d75d11dd8114ed0bdb5f",
            "to": "0x6ede206427e12ecee0f4ed23f37247f3d9885b6a",
            "gas": "0x961a",
            "value": "0x0",
            "input": "0x3400288b0000000000000000000000000000000000000000000000000000000000009d270000000000000000000000006ede206427e12ecee0f4ed23f37247f3d9885b6a",
            "nonce": "0x424",
            "chainId": "0x14a34"
          },
          "additionalContracts": [],
          "isFixedGasLimit": false
        }
      ],
      "receipts": [
        {
          "status": "0x1",
          "cumulativeGasUsed": "0xf5e6d",
          "logs": [
            {
              "address": "0x6ede206427e12ecee0f4ed23f37247f3d9885b6a",
              "topics": [
                "0x238399d427b947898edb290f5ff0f9109849b1c3ba196a42e35f00c50a54b98b"
              ],
              "data": "0x0000000000000000000000000000000000000000000000000000000000009d270000000000000000000000006ede206427e12ecee0f4ed23f37247f3d9885b6a",
              "blockHash": "0xa2d43ceeacaf89d00f706fb90d108f0631f25f98d878aabdeaec0c95d0e89021",
              "blockNumber": "0x123041d",
              "transactionHash": "0x7e1093525cba3b252c13b5580d9a09b03dc675a3517e00779108c9d65b082bdb",
              "transactionIndex": "0xc",
              "logIndex": "0x1a",
              "removed": false
            }
          ],
          "logsBloom": "0x00000000000000000000000000000000000000000000000000000000000001000000000000000000000000000000000000000000000000000800000000000000000000000000000000000000000000000000000000000000800000000000000000000000000000000000000000000000000000000000000000000000000000000000000000000000000000000000000000000000000000000000000000000000000000000000000000000000000000000000000000000000000002000000000000000000000000000000000000002000000000000000000000040000000000000000000000000000000000000000000000000000000000000000000000000000",
          "type": "0x2",
          "transactionHash": "0x7e1093525cba3b252c13b5580d9a09b03dc675a3517e00779108c9d65b082bdb",
          "transactionIndex": "0xc",
          "blockHash": "0xa2d43ceeacaf89d00f706fb90d108f0631f25f98d878aabdeaec0c95d0e89021",
          "blockNumber": "0x123041d",
          "gasUsed": "0x6cad",
          "effectiveGasPrice": "0x187b3",
          "from": "0x64a822f980dc5f126215d75d11dd8114ed0bdb5f",
          "to": "0x6ede206427e12ecee0f4ed23f37247f3d9885b6a",
          "contractAddress": null,
          "l1BaseFeeScalar": "0x44d",
          "l1BlobBaseFee": "0x67f3f55b",
          "l1BlobBaseFeeScalar": "0xa118b",
          "l1Fee": "0x1b38a670fe",
          "l1GasPrice": "0x3e0c4151",
          "l1GasUsed": "0x640"
        }
      ],
      "libraries": [],
      "pending": [],
      "returns": {},
      "timestamp": 1733912340,
      "chain": 84532,
      "commit": "448f8ce"
    },
    {
      "transactions": [
        {
          "hash": "0xc2ecbbb7be9fb113411d92e67ea5af7e20e2a471c11503b106cf80382ca9c743",
          "transactionType": "CALL",
          "contractName": null,
          "contractAddress": "0x6ede206427e12ecee0f4ed23f37247f3d9885b6a",
          "function": "setPeer(uint32,bytes32)",
          "arguments": [
            "40245",
            "0x0000000000000000000000006ede206427e12ecee0f4ed23f37247f3d9885b6a"
          ],
          "transaction": {
            "from": "0x64a822f980dc5f126215d75d11dd8114ed0bdb5f",
            "to": "0x6ede206427e12ecee0f4ed23f37247f3d9885b6a",
            "gas": "0x8f09",
            "value": "0x0",
            "input": "0x3400288b0000000000000000000000000000000000000000000000000000000000009d350000000000000000000000006ede206427e12ecee0f4ed23f37247f3d9885b6a",
            "nonce": "0x1d4",
            "chainId": "0x66eee"
          },
          "additionalContracts": [],
          "isFixedGasLimit": false
        }
      ],
      "receipts": [
        {
          "status": "0x1",
          "cumulativeGasUsed": "0x6cad",
          "logs": [
            {
              "address": "0x6ede206427e12ecee0f4ed23f37247f3d9885b6a",
              "topics": [
                "0x238399d427b947898edb290f5ff0f9109849b1c3ba196a42e35f00c50a54b98b"
              ],
              "data": "0x0000000000000000000000000000000000000000000000000000000000009d350000000000000000000000006ede206427e12ecee0f4ed23f37247f3d9885b6a",
              "blockHash": "0x288d730cf046490a7954fb3c45251881186425df48c9924d3242f1693e5a46ff",
              "blockNumber": "0x64dea63",
              "transactionHash": "0xc2ecbbb7be9fb113411d92e67ea5af7e20e2a471c11503b106cf80382ca9c743",
              "transactionIndex": "0x1",
              "logIndex": "0x0",
              "removed": false
            }
          ],
          "logsBloom": "0x00000000000000000000000000000000000000000000000000000000000001000000000000000000000000000000000000000000000000000800000000000000000000000000000000000000000000000000000000000000800000000000000000000000000000000000000000000000000000000000000000000000000000000000000000000000000000000000000000000000000000000000000000000000000000000000000000000000000000000000000000000000000002000000000000000000000000000000000000002000000000000000000000040000000000000000000000000000000000000000000000000000000000000000000000000000",
          "type": "0x2",
          "transactionHash": "0xc2ecbbb7be9fb113411d92e67ea5af7e20e2a471c11503b106cf80382ca9c743",
          "transactionIndex": "0x1",
          "blockHash": "0x288d730cf046490a7954fb3c45251881186425df48c9924d3242f1693e5a46ff",
          "blockNumber": "0x64dea63",
          "gasUsed": "0x6cad",
          "effectiveGasPrice": "0x5f5e100",
          "from": "0x64a822f980dc5f126215d75d11dd8114ed0bdb5f",
          "to": "0x6ede206427e12ecee0f4ed23f37247f3d9885b6a",
          "contractAddress": null,
          "gasUsedForL1": "0x0",
          "l1BlockNumber": "0x6eb97a"
        }
      ],
      "libraries": [],
      "pending": [],
      "returns": {},
      "timestamp": 1733912341,
      "chain": 421614,
      "commit": "448f8ce"
    },
    {
      "transactions": [
        {
          "hash": null,
          "transactionType": "CALL",
          "contractName": null,
          "contractAddress": "0x6ede206427e12ecee0f4ed23f37247f3d9885b6a",
          "function": "setReadChannel(uint32,bool)",
          "arguments": [
            "4294967295",
            "true"
          ],
          "transaction": {
            "from": "0x64a822f980dc5f126215d75d11dd8114ed0bdb5f",
            "to": "0x6ede206427e12ecee0f4ed23f37247f3d9885b6a",
            "gas": "0x9e2f",
            "value": "0x0",
            "input": "0xf0a9e48100000000000000000000000000000000000000000000000000000000ffffffff0000000000000000000000000000000000000000000000000000000000000001",
            "nonce": "0x424",
            "chainId": "0x14a34"
          },
          "additionalContracts": [],
          "isFixedGasLimit": false
        }
      ],
      "receipts": [],
      "libraries": [],
      "pending": [],
      "returns": {},
      "timestamp": 1733912341,
      "chain": 84532,
      "commit": "448f8ce"
    }
  ],
  "timestamp": 1733912349
}