{
  "transactions": [
    {
      "hash": "0x2a1bf55d4633c456e5bd14910aceee7a94451708bfd6576e7f8a99f60bfef71e",
      "transactionType": "CALL",
      "contractName": null,
      "contractAddress": "0x6edce65403992e310a62460808c4b910d972f10f",
      "function": "setSendLibrary(address,uint32,address)",
      "arguments": [
        "0x63F7F67bcCc1064B86238d83d764CAbCaaED2916",
        "4294967295",
        "0x29270F0CFC54432181C853Cd25E2Fb60A68E03f2"
      ],
      "transaction": {
        "from": "0x64a822f980dc5f126215d75d11dd8114ed0bdb5f",
        "to": "0x6edce65403992e310a62460808c4b910d972f10f",
        "gas": "0x137f1",
        "value": "0x0",
        "input": "0x9535ff3000000000000000000000000063f7f67bccc1064b86238d83d764cabcaaed291600000000000000000000000000000000000000000000000000000000ffffffff00000000000000000000000029270f0cfc54432181c853cd25e2fb60a68e03f2",
        "nonce": "0x42a",
        "chainId": "0x14a34"
      },
      "additionalContracts": [],
      "isFixedGasLimit": false
    }
  ],
  "receipts": [
    {
      "status": "0x1",
      "cumulativeGasUsed": "0x184624",
      "logs": [
        {
          "address": "0x6edce65403992e310a62460808c4b910d972f10f",
          "topics": [
            "0x4cff966ebee29a156dcb34cf72c1d06231fb1777f6bdf6e8089819232f002b1c"
          ],
          "data": "0x00000000000000000000000063f7f67bccc1064b86238d83d764cabcaaed291600000000000000000000000000000000000000000000000000000000ffffffff00000000000000000000000029270f0cfc54432181c853cd25e2fb60a68e03f2",
          "blockHash": "0xdefb0bda69fa705cd32d9145dea5519e927847680842ab3a563a023f1682291c",
          "blockNumber": "0x123303c",
          "transactionHash": "0x2a1bf55d4633c456e5bd14910aceee7a94451708bfd6576e7f8a99f60bfef71e",
          "transactionIndex": "0xe",
          "logIndex": "0x9",
          "removed": false
        }
      ],
      "logsBloom": "0x00000000000000000000000000000000000200000000000000000000000000000000000000000000200000000000000000000000000000000000000001000000000000000000000000000000000000000000000000000000000000000000000000000000000000000200000000000000000000000000000000000000000000000000000000000020000000000000000000000000000000000000000000000000000000000000000000000000000000000000000000000000000000000000000000000000000000000000000000000000000000000000000000000000000000000040000000000000000000000000000000000000000000000000000000000000",
      "type": "0x2",
      "transactionHash": "0x2a1bf55d4633c456e5bd14910aceee7a94451708bfd6576e7f8a99f60bfef71e",
      "transactionIndex": "0xe",
      "blockHash": "0xdefb0bda69fa705cd32d9145dea5519e927847680842ab3a563a023f1682291c",
      "blockNumber": "0x123303c",
      "gasUsed": "0xe1d8",
      "effectiveGasPrice": "0x187d1",
      "from": "0x64a822f980dc5f126215d75d11dd8114ed0bdb5f",
      "to": "0x6edce65403992e310a62460808c4b910d972f10f",
      "contractAddress": null,
      "l1BaseFeeScalar": "0x44d",
      "l1BlobBaseFee": "0x91d0d8a",
      "l1BlobBaseFeeScalar": "0xa118b",
      "l1Fee": "0x65c916812",
      "l1GasPrice": "0x1fc2d2e0f",
      "l1GasUsed": "0x6cd"
    }
  ],
  "libraries": [],
  "pending": [],
  "returns": {},
  "timestamp": 1733934937,
  "chain": 84532,
  "commit": "59721d8"
}